{
  "_format": "hh-sol-artifact-1",
  "contractName": "ClapPortal",
  "sourceName": "contracts/ClapPortal.sol",
  "abi": [
    {
      "inputs": [],
      "stateMutability": "payable",
      "type": "constructor"
    },
    {
      "anonymous": false,
      "inputs": [
        {
          "indexed": true,
          "internalType": "address",
          "name": "from",
          "type": "address"
        },
        {
          "indexed": false,
          "internalType": "uint256",
          "name": "timestamp",
          "type": "uint256"
        },
        {
          "indexed": false,
          "internalType": "string",
          "name": "message",
          "type": "string"
        }
      ],
      "name": "NewClap",
      "type": "event"
    },
    {
      "inputs": [
        {
          "internalType": "string",
          "name": "_message",
          "type": "string"
        }
      ],
      "name": "clap",
      "outputs": [],
      "stateMutability": "nonpayable",
      "type": "function"
    },
    {
      "inputs": [],
      "name": "getAllClaps",
      "outputs": [
        {
          "components": [
            {
              "internalType": "address",
              "name": "clapper",
              "type": "address"
            },
            {
              "internalType": "string",
              "name": "message",
              "type": "string"
            },
            {
              "internalType": "uint256",
              "name": "timestamp",
              "type": "uint256"
            }
          ],
          "internalType": "struct ClapPortal.Clap[]",
          "name": "",
          "type": "tuple[]"
        }
      ],
      "stateMutability": "view",
      "type": "function"
    },
    {
      "inputs": [],
      "name": "getTotalClaps",
      "outputs": [
        {
          "internalType": "uint256",
          "name": "",
          "type": "uint256"
        }
      ],
      "stateMutability": "view",
      "type": "function"
    },
    {
      "inputs": [
        {
          "internalType": "address",
          "name": "",
          "type": "address"
        }
      ],
      "name": "lastClappedAt",
      "outputs": [
        {
          "internalType": "uint256",
          "name": "",
          "type": "uint256"
        }
      ],
      "stateMutability": "view",
      "type": "function"
    }
  ],
  "bytecode": "0x6080604052620000336040518060600160405280602b815260200162001491602b91396200003960201b620006871760201c565b620001cd565b620000d98160405160240162000050919062000146565b6040516020818303038152906040527f41304fac000000000000000000000000000000000000000000000000000000007bffffffffffffffffffffffffffffffffffffffffffffffffffffffff19166020820180517bffffffffffffffffffffffffffffffffffffffffffffffffffffffff8381831617835250505050620000dc60201b60201c565b50565b60008151905060006a636f6e736f6c652e6c6f679050602083016000808483855afa5050505050565b600062000112826200016a565b6200011e818562000175565b93506200013081856020860162000186565b6200013b81620001bc565b840191505092915050565b6000602082019050818103600083015262000162818462000105565b905092915050565b600081519050919050565b600082825260208201905092915050565b60005b83811015620001a657808201518184015260208101905062000189565b83811115620001b6576000848401525b50505050565b6000601f19601f8301169050919050565b6112b480620001dd6000396000f3fe608060405234801561001057600080fd5b506004361061004c5760003560e01c80636804f8b8146100515780638745ee101461006f578063ba642f521461008d578063bb9650b2146100a9575b600080fd5b6100596100d9565b6040516100669190610e0a565b60405180910390f35b6100776100e2565b6040516100849190610ccf565b60405180910390f35b6100a760048036038101906100a29190610a66565b610233565b005b6100c360048036038101906100be9190610a3d565b61066f565b6040516100d09190610e0a565b60405180910390f35b60008054905090565b60606002805480602002602001604051908101604052809291908181526020016000905b8282101561022a57838290600052602060002090600302016040518060600160405290816000820160009054906101000a900473ffffffffffffffffffffffffffffffffffffffff1673ffffffffffffffffffffffffffffffffffffffff1673ffffffffffffffffffffffffffffffffffffffff16815260200160018201805461018f90610ff0565b80601f01602080910402602001604051908101604052809291908181526020018280546101bb90610ff0565b80156102085780601f106101dd57610100808354040283529160200191610208565b820191906000526020600020905b8154815290600101906020018083116101eb57829003601f168201915b5050505050815260200160028201548152505081526020019060010190610106565b50505050905090565b42602d600360003373ffffffffffffffffffffffffffffffffffffffff1673ffffffffffffffffffffffffffffffffffffffff168152602001908152602001600020546102809190610f1c565b106102c0576040517f08c379a00000000000000000000000000000000000000000000000000000000081526004016102b790610daa565b60405180910390fd5b42600360003373ffffffffffffffffffffffffffffffffffffffff1673ffffffffffffffffffffffffffffffffffffffff1681526020019081526020016000208190555060016000808282546103169190610f1c565b9250508190555061035c6040518060400160405280601581526020017f257320636c617070656420772f206d657373616765000000000000000000000081525033610720565b61039b6040518060400160405280600f81526020017f476f74206d6573736167653a2025730000000000000000000000000000000000815250826107bc565b600260405180606001604052803373ffffffffffffffffffffffffffffffffffffffff16815260200183815260200142815250908060018154018082558091505060019003906000526020600020906003020160009091909190915060008201518160000160006101000a81548173ffffffffffffffffffffffffffffffffffffffff021916908373ffffffffffffffffffffffffffffffffffffffff160217905550602082015181600101908051906020019061045a92919061091d565b5060408201518160020155505060006064600154424461047a9190610f1c565b6104849190610f1c565b61048e9190611053565b90506104cf6040518060400160405280601b81526020017f52616e646f6d6c792067656e657261746564206e756d6265723a20000000000081525082610858565b80600181905550603281101561061b5761051e6040518060400160405280600781526020017f257320776f6e210000000000000000000000000000000000000000000000000081525033610720565b6000655af3107a400090504781111561056c576040517f08c379a000000000000000000000000000000000000000000000000000000000815260040161056390610dca565b60405180910390fd5b60003373ffffffffffffffffffffffffffffffffffffffff168260405161059290610cba565b60006040518083038185875af1925050503d80600081146105cf576040519150601f19603f3d011682016040523d82523d6000602084013e6105d4565b606091505b5050905080610618576040517f08c379a000000000000000000000000000000000000000000000000000000000815260040161060f90610dea565b60405180910390fd5b50505b3373ffffffffffffffffffffffffffffffffffffffff167fe9f152dbea403841dcf2e81a9d9de7a7d7b447a9993ac69670a42989baf534094284604051610663929190610e25565b60405180910390a25050565b60036020528060005260406000206000915090505481565b61071d8160405160240161069b9190610cf1565b6040516020818303038152906040527f41304fac000000000000000000000000000000000000000000000000000000007bffffffffffffffffffffffffffffffffffffffffffffffffffffffff19166020820180517bffffffffffffffffffffffffffffffffffffffffffffffffffffffff83818316178352505050506108f4565b50565b6107b88282604051602401610736929190610d13565b6040516020818303038152906040527f319af333000000000000000000000000000000000000000000000000000000007bffffffffffffffffffffffffffffffffffffffffffffffffffffffff19166020820180517bffffffffffffffffffffffffffffffffffffffffffffffffffffffff83818316178352505050506108f4565b5050565b61085482826040516024016107d2929190610d43565b6040516020818303038152906040527f4b5c4277000000000000000000000000000000000000000000000000000000007bffffffffffffffffffffffffffffffffffffffffffffffffffffffff19166020820180517bffffffffffffffffffffffffffffffffffffffffffffffffffffffff83818316178352505050506108f4565b5050565b6108f0828260405160240161086e929190610d7a565b6040516020818303038152906040527f9710a9d0000000000000000000000000000000000000000000000000000000007bffffffffffffffffffffffffffffffffffffffffffffffffffffffff19166020820180517bffffffffffffffffffffffffffffffffffffffffffffffffffffffff83818316178352505050506108f4565b5050565b60008151905060006a636f6e736f6c652e6c6f679050602083016000808483855afa5050505050565b82805461092990610ff0565b90600052602060002090601f01602090048101928261094b5760008555610992565b82601f1061096457805160ff1916838001178555610992565b82800160010185558215610992579182015b82811115610991578251825591602001919060010190610976565b5b50905061099f91906109a3565b5090565b5b808211156109bc5760008160009055506001016109a4565b5090565b60006109d36109ce84610e7a565b610e55565b9050828152602081018484840111156109eb57600080fd5b6109f6848285610fae565b509392505050565b600081359050610a0d81611267565b92915050565b600082601f830112610a2457600080fd5b8135610a348482602086016109c0565b91505092915050565b600060208284031215610a4f57600080fd5b6000610a5d848285016109fe565b91505092915050565b600060208284031215610a7857600080fd5b600082013567ffffffffffffffff811115610a9257600080fd5b610a9e84828501610a13565b91505092915050565b6000610ab38383610c4c565b905092915050565b610ac481610f72565b82525050565b610ad381610f72565b82525050565b6000610ae482610ebb565b610aee8185610ede565b935083602082028501610b0085610eab565b8060005b85811015610b3c5784840389528151610b1d8582610aa7565b9450610b2883610ed1565b925060208a01995050600181019050610b04565b50829750879550505050505092915050565b6000610b5982610ec6565b610b638185610efa565b9350610b73818560208601610fbd565b610b7c81611140565b840191505092915050565b6000610b9282610ec6565b610b9c8185610f0b565b9350610bac818560208601610fbd565b610bb581611140565b840191505092915050565b6000610bcd601383610f0b565b9150610bd882611151565b602082019050919050565b6000610bf0606e83610f0b565b9150610bfb8261117a565b608082019050919050565b6000610c13602683610f0b565b9150610c1e82611215565b604082019050919050565b6000610c36600083610eef565b9150610c4182611264565b600082019050919050565b6000606083016000830151610c646000860182610abb565b5060208301518482036020860152610c7c8282610b4e565b9150506040830151610c916040860182610c9c565b508091505092915050565b610ca581610fa4565b82525050565b610cb481610fa4565b82525050565b6000610cc582610c29565b9150819050919050565b60006020820190508181036000830152610ce98184610ad9565b905092915050565b60006020820190508181036000830152610d0b8184610b87565b905092915050565b60006040820190508181036000830152610d2d8185610b87565b9050610d3c6020830184610aca565b9392505050565b60006040820190508181036000830152610d5d8185610b87565b90508181036020830152610d718184610b87565b90509392505050565b60006040820190508181036000830152610d948185610b87565b9050610da36020830184610cab565b9392505050565b60006020820190508181036000830152610dc381610bc0565b9050919050565b60006020820190508181036000830152610de381610be3565b9050919050565b60006020820190508181036000830152610e0381610c06565b9050919050565b6000602082019050610e1f6000830184610cab565b92915050565b6000604082019050610e3a6000830185610cab565b8181036020830152610e4c8184610b87565b90509392505050565b6000610e5f610e70565b9050610e6b8282611022565b919050565b6000604051905090565b600067ffffffffffffffff821115610e9557610e94611111565b5b610e9e82611140565b9050602081019050919050565b6000819050602082019050919050565b600081519050919050565b600081519050919050565b6000602082019050919050565b600082825260208201905092915050565b600081905092915050565b600082825260208201905092915050565b600082825260208201905092915050565b6000610f2782610fa4565b9150610f3283610fa4565b9250827fffffffffffffffffffffffffffffffffffffffffffffffffffffffffffffffff03821115610f6757610f66611084565b5b828201905092915050565b6000610f7d82610f84565b9050919050565b600073ffffffffffffffffffffffffffffffffffffffff82169050919050565b6000819050919050565b82818337600083830152505050565b60005b83811015610fdb578082015181840152602081019050610fc0565b83811115610fea576000848401525b50505050565b6000600282049050600182168061100857607f821691505b6020821081141561101c5761101b6110e2565b5b50919050565b61102b82611140565b810181811067ffffffffffffffff8211171561104a57611049611111565b5b80604052505050565b600061105e82610fa4565b915061106983610fa4565b925082611079576110786110b3565b5b828206905092915050565b7f4e487b7100000000000000000000000000000000000000000000000000000000600052601160045260246000fd5b7f4e487b7100000000000000000000000000000000000000000000000000000000600052601260045260246000fd5b7f4e487b7100000000000000000000000000000000000000000000000000000000600052602260045260246000fd5b7f4e487b7100000000000000000000000000000000000000000000000000000000600052604160045260246000fd5b6000601f19601f8301169050919050565b7f436f6f6c646f776e7c3435207365636f6e647300000000000000000000000000600082015250565b7f536f7272792c2074686973206973206e6f7420706f737369626c65206174207460008201527f6865206d6f6d656e74206265636175736520796f752061726520747279696e6760208201527f20746f207769746864726177206d6f7265206d6f6e6579207468616e2074686560408201527f20636f6e7472616374206861732e000000000000000000000000000000000000606082015250565b7f4661696c656420746f207769746864726177206d6f6e65792066726f6d20636f60008201527f6e74726163740000000000000000000000000000000000000000000000000000602082015250565b50565b61127081610f72565b811461127b57600080fd5b5056fea26469706673582212207d096d5a8a3a0da14cdd8cedd772da7da8187c522bd53be39c1187f20dee2dab64736f6c634300080400334865792066656c6c61732c206c6f6f6b206174206d7920666972737420736d61727420636f6e7472616374",
  "linkReferences": {},
  "deployedLinkReferences": {}
}