{
  "_format": "hh-sol-artifact-1",
  "contractName": "ClapPortal",
  "sourceName": "contracts/ClapPortal.sol",
  "abi": [
    {
      "inputs": [],
      "stateMutability": "payable",
      "type": "constructor"
    },
    {
      "anonymous": false,
      "inputs": [
        {
          "indexed": true,
          "internalType": "address",
          "name": "from",
          "type": "address"
        },
        {
          "indexed": false,
          "internalType": "uint256",
          "name": "timestamp",
          "type": "uint256"
        },
        {
          "indexed": false,
          "internalType": "string",
          "name": "message",
          "type": "string"
        }
      ],
      "name": "NewClap",
      "type": "event"
    },
    {
      "inputs": [
        {
          "internalType": "string",
          "name": "_message",
          "type": "string"
        }
      ],
      "name": "clap",
      "outputs": [],
      "stateMutability": "nonpayable",
      "type": "function"
    },
    {
      "inputs": [],
      "name": "getAllClaps",
      "outputs": [
        {
          "components": [
            {
              "internalType": "address",
              "name": "clapper",
              "type": "address"
            },
            {
              "internalType": "string",
              "name": "message",
              "type": "string"
            },
            {
              "internalType": "uint256",
              "name": "timestamp",
              "type": "uint256"
            }
          ],
          "internalType": "struct ClapPortal.Clap[]",
          "name": "",
          "type": "tuple[]"
        }
      ],
      "stateMutability": "view",
      "type": "function"
    },
    {
      "inputs": [],
      "name": "getTotalClaps",
      "outputs": [
        {
          "internalType": "uint256",
          "name": "",
          "type": "uint256"
        }
      ],
      "stateMutability": "view",
      "type": "function"
    },
    {
      "inputs": [
        {
          "internalType": "address",
          "name": "",
          "type": "address"
        }
      ],
      "name": "lastClappedAt",
      "outputs": [
        {
          "internalType": "uint256",
          "name": "",
          "type": "uint256"
        }
      ],
      "stateMutability": "view",
      "type": "function"
    }
  ],
  "bytecode": "0x6080604052620000336040518060600160405280602b815260200162001492602b91396200003960201b620006881760201c565b620001cd565b620000d98160405160240162000050919062000146565b6040516020818303038152906040527f41304fac000000000000000000000000000000000000000000000000000000007bffffffffffffffffffffffffffffffffffffffffffffffffffffffff19166020820180517bffffffffffffffffffffffffffffffffffffffffffffffffffffffff8381831617835250505050620000dc60201b60201c565b50565b60008151905060006a636f6e736f6c652e6c6f679050602083016000808483855afa5050505050565b600062000112826200016a565b6200011e818562000175565b93506200013081856020860162000186565b6200013b81620001bc565b840191505092915050565b6000602082019050818103600083015262000162818462000105565b905092915050565b600081519050919050565b600082825260208201905092915050565b60005b83811015620001a657808201518184015260208101905062000189565b83811115620001b6576000848401525b50505050565b6000601f19601f8301169050919050565b6112b580620001dd6000396000f3fe608060405234801561001057600080fd5b506004361061004c5760003560e01c80636804f8b8146100515780638745ee101461006f578063ba642f521461008d578063bb9650b2146100a9575b600080fd5b6100596100d9565b6040516100669190610e0b565b60405180910390f35b6100776100e2565b6040516100849190610cd0565b60405180910390f35b6100a760048036038101906100a29190610a67565b610233565b005b6100c360048036038101906100be9190610a3e565b610670565b6040516100d09190610e0b565b60405180910390f35b60008054905090565b60606002805480602002602001604051908101604052809291908181526020016000905b8282101561022a57838290600052602060002090600302016040518060600160405290816000820160009054906101000a900473ffffffffffffffffffffffffffffffffffffffff1673ffffffffffffffffffffffffffffffffffffffff1673ffffffffffffffffffffffffffffffffffffffff16815260200160018201805461018f90610ff1565b80601f01602080910402602001604051908101604052809291908181526020018280546101bb90610ff1565b80156102085780601f106101dd57610100808354040283529160200191610208565b820191906000526020600020905b8154815290600101906020018083116101eb57829003601f168201915b5050505050815260200160028201548152505081526020019060010190610106565b50505050905090565b42610384600360003373ffffffffffffffffffffffffffffffffffffffff1673ffffffffffffffffffffffffffffffffffffffff168152602001908152602001600020546102819190610f1d565b106102c1576040517f08c379a00000000000000000000000000000000000000000000000000000000081526004016102b890610dab565b60405180910390fd5b42600360003373ffffffffffffffffffffffffffffffffffffffff1673ffffffffffffffffffffffffffffffffffffffff1681526020019081526020016000208190555060016000808282546103179190610f1d565b9250508190555061035d6040518060400160405280601581526020017f257320636c617070656420772f206d657373616765000000000000000000000081525033610721565b61039c6040518060400160405280600f81526020017f476f74206d6573736167653a2025730000000000000000000000000000000000815250826107bd565b600260405180606001604052803373ffffffffffffffffffffffffffffffffffffffff16815260200183815260200142815250908060018154018082558091505060019003906000526020600020906003020160009091909190915060008201518160000160006101000a81548173ffffffffffffffffffffffffffffffffffffffff021916908373ffffffffffffffffffffffffffffffffffffffff160217905550602082015181600101908051906020019061045b92919061091e565b5060408201518160020155505060006064600154424461047b9190610f1d565b6104859190610f1d565b61048f9190611054565b90506104d06040518060400160405280601b81526020017f52616e646f6d6c792067656e657261746564206e756d6265723a20000000000081525082610859565b80600181905550603281101561061c5761051f6040518060400160405280600781526020017f257320776f6e210000000000000000000000000000000000000000000000000081525033610721565b6000655af3107a400090504781111561056d576040517f08c379a000000000000000000000000000000000000000000000000000000000815260040161056490610dcb565b60405180910390fd5b60003373ffffffffffffffffffffffffffffffffffffffff168260405161059390610cbb565b60006040518083038185875af1925050503d80600081146105d0576040519150601f19603f3d011682016040523d82523d6000602084013e6105d5565b606091505b5050905080610619576040517f08c379a000000000000000000000000000000000000000000000000000000000815260040161061090610deb565b60405180910390fd5b50505b3373ffffffffffffffffffffffffffffffffffffffff167fe9f152dbea403841dcf2e81a9d9de7a7d7b447a9993ac69670a42989baf534094284604051610664929190610e26565b60405180910390a25050565b60036020528060005260406000206000915090505481565b61071e8160405160240161069c9190610cf2565b6040516020818303038152906040527f41304fac000000000000000000000000000000000000000000000000000000007bffffffffffffffffffffffffffffffffffffffffffffffffffffffff19166020820180517bffffffffffffffffffffffffffffffffffffffffffffffffffffffff83818316178352505050506108f5565b50565b6107b98282604051602401610737929190610d14565b6040516020818303038152906040527f319af333000000000000000000000000000000000000000000000000000000007bffffffffffffffffffffffffffffffffffffffffffffffffffffffff19166020820180517bffffffffffffffffffffffffffffffffffffffffffffffffffffffff83818316178352505050506108f5565b5050565b61085582826040516024016107d3929190610d44565b6040516020818303038152906040527f4b5c4277000000000000000000000000000000000000000000000000000000007bffffffffffffffffffffffffffffffffffffffffffffffffffffffff19166020820180517bffffffffffffffffffffffffffffffffffffffffffffffffffffffff83818316178352505050506108f5565b5050565b6108f1828260405160240161086f929190610d7b565b6040516020818303038152906040527f9710a9d0000000000000000000000000000000000000000000000000000000007bffffffffffffffffffffffffffffffffffffffffffffffffffffffff19166020820180517bffffffffffffffffffffffffffffffffffffffffffffffffffffffff83818316178352505050506108f5565b5050565b60008151905060006a636f6e736f6c652e6c6f679050602083016000808483855afa5050505050565b82805461092a90610ff1565b90600052602060002090601f01602090048101928261094c5760008555610993565b82601f1061096557805160ff1916838001178555610993565b82800160010185558215610993579182015b82811115610992578251825591602001919060010190610977565b5b5090506109a091906109a4565b5090565b5b808211156109bd5760008160009055506001016109a5565b5090565b60006109d46109cf84610e7b565b610e56565b9050828152602081018484840111156109ec57600080fd5b6109f7848285610faf565b509392505050565b600081359050610a0e81611268565b92915050565b600082601f830112610a2557600080fd5b8135610a358482602086016109c1565b91505092915050565b600060208284031215610a5057600080fd5b6000610a5e848285016109ff565b91505092915050565b600060208284031215610a7957600080fd5b600082013567ffffffffffffffff811115610a9357600080fd5b610a9f84828501610a14565b91505092915050565b6000610ab48383610c4d565b905092915050565b610ac581610f73565b82525050565b610ad481610f73565b82525050565b6000610ae582610ebc565b610aef8185610edf565b935083602082028501610b0185610eac565b8060005b85811015610b3d5784840389528151610b1e8582610aa8565b9450610b2983610ed2565b925060208a01995050600181019050610b05565b50829750879550505050505092915050565b6000610b5a82610ec7565b610b648185610efb565b9350610b74818560208601610fbe565b610b7d81611141565b840191505092915050565b6000610b9382610ec7565b610b9d8185610f0c565b9350610bad818560208601610fbe565b610bb681611141565b840191505092915050565b6000610bce600983610f0c565b9150610bd982611152565b602082019050919050565b6000610bf1606e83610f0c565b9150610bfc8261117b565b608082019050919050565b6000610c14602683610f0c565b9150610c1f82611216565b604082019050919050565b6000610c37600083610ef0565b9150610c4282611265565b600082019050919050565b6000606083016000830151610c656000860182610abc565b5060208301518482036020860152610c7d8282610b4f565b9150506040830151610c926040860182610c9d565b508091505092915050565b610ca681610fa5565b82525050565b610cb581610fa5565b82525050565b6000610cc682610c2a565b9150819050919050565b60006020820190508181036000830152610cea8184610ada565b905092915050565b60006020820190508181036000830152610d0c8184610b88565b905092915050565b60006040820190508181036000830152610d2e8185610b88565b9050610d3d6020830184610acb565b9392505050565b60006040820190508181036000830152610d5e8185610b88565b90508181036020830152610d728184610b88565b90509392505050565b60006040820190508181036000830152610d958185610b88565b9050610da46020830184610cac565b9392505050565b60006020820190508181036000830152610dc481610bc1565b9050919050565b60006020820190508181036000830152610de481610be4565b9050919050565b60006020820190508181036000830152610e0481610c07565b9050919050565b6000602082019050610e206000830184610cac565b92915050565b6000604082019050610e3b6000830185610cac565b8181036020830152610e4d8184610b88565b90509392505050565b6000610e60610e71565b9050610e6c8282611023565b919050565b6000604051905090565b600067ffffffffffffffff821115610e9657610e95611112565b5b610e9f82611141565b9050602081019050919050565b6000819050602082019050919050565b600081519050919050565b600081519050919050565b6000602082019050919050565b600082825260208201905092915050565b600081905092915050565b600082825260208201905092915050565b600082825260208201905092915050565b6000610f2882610fa5565b9150610f3383610fa5565b9250827fffffffffffffffffffffffffffffffffffffffffffffffffffffffffffffffff03821115610f6857610f67611085565b5b828201905092915050565b6000610f7e82610f85565b9050919050565b600073ffffffffffffffffffffffffffffffffffffffff82169050919050565b6000819050919050565b82818337600083830152505050565b60005b83811015610fdc578082015181840152602081019050610fc1565b83811115610feb576000848401525b50505050565b6000600282049050600182168061100957607f821691505b6020821081141561101d5761101c6110e3565b5b50919050565b61102c82611141565b810181811067ffffffffffffffff8211171561104b5761104a611112565b5b80604052505050565b600061105f82610fa5565b915061106a83610fa5565b92508261107a576110796110b4565b5b828206905092915050565b7f4e487b7100000000000000000000000000000000000000000000000000000000600052601160045260246000fd5b7f4e487b7100000000000000000000000000000000000000000000000000000000600052601260045260246000fd5b7f4e487b7100000000000000000000000000000000000000000000000000000000600052602260045260246000fd5b7f4e487b7100000000000000000000000000000000000000000000000000000000600052604160045260246000fd5b6000601f19601f8301169050919050565b7f576169742031356d6e0000000000000000000000000000000000000000000000600082015250565b7f536f7272792c2074686973206973206e6f7420706f737369626c65206174207460008201527f6865206d6f6d656e74206265636175736520796f752061726520747279696e6760208201527f20746f207769746864726177206d6f7265206d6f6e6579207468616e2074686560408201527f20636f6e7472616374206861732e000000000000000000000000000000000000606082015250565b7f4661696c656420746f207769746864726177206d6f6e65792066726f6d20636f60008201527f6e74726163740000000000000000000000000000000000000000000000000000602082015250565b50565b61127181610f73565b811461127c57600080fd5b5056fea2646970667358221220be04ded76ce7c15019c834af763cdbd9b2ec08408a50a50cb78762920e68686c64736f6c634300080400334865792066656c6c61732c206c6f6f6b206174206d7920666972737420736d61727420636f6e7472616374",
  "linkReferences": {},
  "deployedLinkReferences": {}
}